{
  "contractName": "VotingSystem",
  "abi": [
    {
      "inputs": [],
      "stateMutability": "nonpayable",
      "type": "constructor"
    },
    {
      "inputs": [],
      "name": "Organizer_name",
      "outputs": [
        {
          "internalType": "string",
          "name": "",
          "type": "string"
        }
      ],
      "stateMutability": "view",
      "type": "function"
    },
    {
      "inputs": [],
      "name": "totalVoters",
      "outputs": [
        {
          "internalType": "uint256",
          "name": "",
          "type": "uint256"
        }
      ],
      "stateMutability": "view",
      "type": "function"
    },
    {
      "inputs": [],
      "name": "start_voting",
      "outputs": [],
      "stateMutability": "nonpayable",
      "type": "function"
    },
    {
      "inputs": [],
      "name": "end_voting",
      "outputs": [],
      "stateMutability": "nonpayable",
      "type": "function"
    },
    {
      "inputs": [
        {
          "internalType": "string",
          "name": "name",
          "type": "string"
        }
      ],
      "name": "addCandidates",
      "outputs": [],
      "stateMutability": "nonpayable",
      "type": "function"
    },
    {
      "inputs": [],
      "name": "get_candidates_list",
      "outputs": [
        {
          "internalType": "string[]",
          "name": "",
          "type": "string[]"
        }
      ],
      "stateMutability": "view",
      "type": "function"
    },
    {
      "inputs": [
        {
          "internalType": "string",
          "name": "name",
          "type": "string"
        }
      ],
      "name": "register_voter",
      "outputs": [],
      "stateMutability": "nonpayable",
      "type": "function"
    },
    {
      "inputs": [
        {
          "internalType": "uint256",
          "name": "c",
          "type": "uint256"
        }
      ],
      "name": "do_vote",
      "outputs": [],
      "stateMutability": "nonpayable",
      "type": "function"
    },
    {
      "inputs": [],
      "name": "get_Result",
      "outputs": [
        {
          "internalType": "uint256",
          "name": "",
          "type": "uint256"
        },
        {
          "internalType": "string",
          "name": "",
          "type": "string"
        }
      ],
      "stateMutability": "view",
      "type": "function"
    }
  ],
  "bytecode": "0x608060405260006002556000600455600060055560006006553480156200002557600080fd5b5060006040518060400160405280600481526020017f75646179000000000000000000000000000000000000000000000000000000008152509050600081905060005b8151811015620001b25760008282815181106200008a57620000896200023c565b5b602001015160f81c60f81b9050604160f81b817effffffffffffffffffffffffffffffffffffffffffffffffffffffffffffff191610158015620000f45750605a60f81b817effffffffffffffffffffffffffffffffffffffffffffffffffffffffffffff191611155b80620001595750606160f81b817effffffffffffffffffffffffffffffffffffffffffffffffffffffffffffff191610158015620001585750607a60f81b817effffffffffffffffffffffffffffffffffffffffffffffffffffffffffffff191611155b5b6200019b576040517f08c379a00000000000000000000000000000000000000000000000000000000081526004016200019290620002cc565b60405180910390fd5b508080620001a99062000327565b91505062000068565b5033600760006101000a81548173ffffffffffffffffffffffffffffffffffffffff021916908373ffffffffffffffffffffffffffffffffffffffff1602179055508160089081620002059190620005e4565b506000600a60006101000a81548160ff021916908360028111156200022f576200022e620006cb565b5b02179055505050620006fa565b7f4e487b7100000000000000000000000000000000000000000000000000000000600052603260045260246000fd5b600082825260208201905092915050565b7f656e7465722076616c6964206e616d6500000000000000000000000000000000600082015250565b6000620002b46010836200026b565b9150620002c1826200027c565b602082019050919050565b60006020820190508181036000830152620002e781620002a5565b9050919050565b7f4e487b7100000000000000000000000000000000000000000000000000000000600052601160045260246000fd5b6000819050919050565b600062000334826200031d565b91507fffffffffffffffffffffffffffffffffffffffffffffffffffffffffffffffff8203620003695762000368620002ee565b5b600182019050919050565b600081519050919050565b7f4e487b7100000000000000000000000000000000000000000000000000000000600052604160045260246000fd5b7f4e487b7100000000000000000000000000000000000000000000000000000000600052602260045260246000fd5b60006002820490506001821680620003f657607f821691505b6020821081036200040c576200040b620003ae565b5b50919050565b60008190508160005260206000209050919050565b60006020601f8301049050919050565b600082821b905092915050565b600060088302620004767fffffffffffffffffffffffffffffffffffffffffffffffffffffffffffffffff8262000437565b62000482868362000437565b95508019841693508086168417925050509392505050565b6000819050919050565b6000620004c5620004bf620004b9846200031d565b6200049a565b6200031d565b9050919050565b6000819050919050565b620004e183620004a4565b620004f9620004f082620004cc565b84845462000444565b825550505050565b600090565b6200051062000501565b6200051d818484620004d6565b505050565b5b8181101562000545576200053960008262000506565b60018101905062000523565b5050565b601f82111562000594576200055e8162000412565b620005698462000427565b8101602085101562000579578190505b62000591620005888562000427565b83018262000522565b50505b505050565b600082821c905092915050565b6000620005b96000198460080262000599565b1980831691505092915050565b6000620005d48383620005a6565b9150826002028217905092915050565b620005ef8262000374565b67ffffffffffffffff8111156200060b576200060a6200037f565b5b620006178254620003dd565b6200062482828562000549565b600060209050601f8311600181146200065c576000841562000647578287015190505b620006538582620005c6565b865550620006c3565b601f1984166200066c8662000412565b60005b8281101562000696578489015182556001820191506020850194506020810190506200066f565b86831015620006b65784890151620006b2601f891682620005a6565b8355505b6001600288020188555050505b505050505050565b7f4e487b7100000000000000000000000000000000000000000000000000000000600052602160045260246000fd5b611be9806200070a6000396000f3fe608060405234801561001057600080fd5b50600436106100935760003560e01c806362604e961161006657806362604e96146100fa578063721b579a1461011657806390bc7b3714610134578063b24aa34e14610150578063c5dec09e1461015a57610093565b8063100249f91461009857806319bfd361146100b45780635f5300ff146100d2578063615a72cf146100f0575b600080fd5b6100b260048036038101906100ad9190610e96565b610179565b005b6100bc6103d8565b6040516100c99190610f53565b60405180910390f35b6100da610466565b6040516100e79190610f84565b60405180910390f35b6100f861046c565b005b610114600480360381019061010f91906110d4565b6105ad565b005b61011e6108aa565b60405161012b9190611229565b60405180910390f35b61014e600480360381019061014991906110d4565b6109c8565b005b610158610c59565b005b610162610d16565b60405161017092919061124b565b60405180910390f35b6001600281111561018d5761018c61127b565b5b600a60009054906101000a900460ff1660028111156101af576101ae61127b565b5b146101ef576040517f08c379a00000000000000000000000000000000000000000000000000000000081526004016101e6906112f6565b60405180910390fd5b6002548111156101fe57600080fd5b6000600960003373ffffffffffffffffffffffffffffffffffffffff1673ffffffffffffffffffffffffffffffffffffffff168152602001908152602001600020600301805461024d90611345565b9050141580156102b0575060001515600960003373ffffffffffffffffffffffffffffffffffffffff1673ffffffffffffffffffffffffffffffffffffffff16815260200190815260200160002060020160009054906101000a900460ff161515145b6102ef576040517f08c379a00000000000000000000000000000000000000000000000000000000081526004016102e6906113c2565b60405180910390fd5b6001600960003373ffffffffffffffffffffffffffffffffffffffff1673ffffffffffffffffffffffffffffffffffffffff16815260200190815260200160002060020160006101000a81548160ff02191690831515021790555080600960003373ffffffffffffffffffffffffffffffffffffffff1673ffffffffffffffffffffffffffffffffffffffff168152602001908152602001600020600101819055506001600082815260200190815260200160002060010160008154809291906103b890611411565b9190505550600660008154809291906103d090611411565b919050555050565b600880546103e590611345565b80601f016020809104026020016040519081016040528092919081815260200182805461041190611345565b801561045e5780601f106104335761010080835404028352916020019161045e565b820191906000526020600020905b81548152906001019060200180831161044157829003601f168201915b505050505081565b60055481565b600760009054906101000a900473ffffffffffffffffffffffffffffffffffffffff1673ffffffffffffffffffffffffffffffffffffffff163373ffffffffffffffffffffffffffffffffffffffff16146104fc576040517f08c379a00000000000000000000000000000000000000000000000000000000081526004016104f3906114cb565b60405180910390fd5b6002600a60006101000a81548160ff021916908360028111156105225761052161127b565b5b021790555060005b6002548110156105aa5760045460016000838152602001908152602001600020600101541115610597576001600082815260200190815260200160002060010154600481905550600160008281526020019081526020016000206000016003908161059591906116c2565b505b80806105a290611411565b91505061052a565b50565b600160028111156105c1576105c061127b565b5b600a60009054906101000a900460ff1660028111156105e3576105e261127b565b5b1415801561062457506002808111156105ff576105fe61127b565b5b600a60009054906101000a900460ff1660028111156106215761062061127b565b5b14155b61062d57600080fd5b600760009054906101000a900473ffffffffffffffffffffffffffffffffffffffff1673ffffffffffffffffffffffffffffffffffffffff163373ffffffffffffffffffffffffffffffffffffffff16146106bd576040517f08c379a00000000000000000000000000000000000000000000000000000000081526004016106b49061181c565b60405180910390fd5b600081905060005b81518110156108025760008282815181106106e3576106e261183c565b5b602001015160f81c60f81b9050604160f81b817effffffffffffffffffffffffffffffffffffffffffffffffffffffffffffff19161015801561074c5750605a60f81b817effffffffffffffffffffffffffffffffffffffffffffffffffffffffffffff191611155b806107af5750606160f81b817effffffffffffffffffffffffffffffffffffffffffffffffffffffffffffff1916101580156107ae5750607a60f81b817effffffffffffffffffffffffffffffffffffffffffffffffffffffffffffff191611155b5b6107ee576040517f08c379a00000000000000000000000000000000000000000000000000000000081526004016107e5906118b7565b60405180910390fd5b5080806107fa90611411565b9150506106c5565b5061080b610df2565b82816000018190525060008390806001815401808255809150506001900390600052602060002001600090919091909150908161084891906118d7565b50600081602001818152505080600160006002548152602001908152602001600020600082015181600001908161087f91906118d7565b5060208201518160010155905050600260008154809291906108a090611411565b9190505550505050565b60606000600254116108f1576040517f08c379a00000000000000000000000000000000000000000000000000000000081526004016108e8906119f5565b60405180910390fd5b6000805480602002602001604051908101604052809291908181526020016000905b828210156109bf57838290600052602060002001805461093290611345565b80601f016020809104026020016040519081016040528092919081815260200182805461095e90611345565b80156109ab5780601f10610980576101008083540402835291602001916109ab565b820191906000526020600020905b81548152906001019060200180831161098e57829003601f168201915b505050505081526020019060010190610913565b50505050905090565b6002808111156109db576109da61127b565b5b600a60009054906101000a900460ff1660028111156109fd576109fc61127b565b5b03610a3d576040517f08c379a0000000000000000000000000000000000000000000000000000000008152600401610a3490611a61565b60405180910390fd5b3373ffffffffffffffffffffffffffffffffffffffff16600960003373ffffffffffffffffffffffffffffffffffffffff1673ffffffffffffffffffffffffffffffffffffffff16815260200190815260200160002060000160009054906101000a900473ffffffffffffffffffffffffffffffffffffffff1673ffffffffffffffffffffffffffffffffffffffff1603610b0d576040517f08c379a0000000000000000000000000000000000000000000000000000000008152600401610b0490611acd565b60405180910390fd5b610b15610e0c565b33816000019073ffffffffffffffffffffffffffffffffffffffff16908173ffffffffffffffffffffffffffffffffffffffff1681525050818160600181905250600081604001901515908115158152505060008160200181815250508060096000836000015173ffffffffffffffffffffffffffffffffffffffff1673ffffffffffffffffffffffffffffffffffffffff16815260200190815260200160002060008201518160000160006101000a81548173ffffffffffffffffffffffffffffffffffffffff021916908373ffffffffffffffffffffffffffffffffffffffff1602179055506020820151816001015560408201518160020160006101000a81548160ff0219169083151502179055506060820151816003019081610c3c91906118d7565b509050506001600554610c4f9190611aed565b6005819055505050565b600760009054906101000a900473ffffffffffffffffffffffffffffffffffffffff1673ffffffffffffffffffffffffffffffffffffffff163373ffffffffffffffffffffffffffffffffffffffff1614610ce9576040517f08c379a0000000000000000000000000000000000000000000000000000000008152600401610ce090611b93565b60405180910390fd5b6001600a60006101000a81548160ff02191690836002811115610d0f57610d0e61127b565b5b0217905550565b60006060600280811115610d2d57610d2c61127b565b5b600a60009054906101000a900460ff166002811115610d4f57610d4e61127b565b5b14610d5957600080fd5b6004546003808054610d6a90611345565b80601f0160208091040260200160405190810160405280929190818152602001828054610d9690611345565b8015610de35780601f10610db857610100808354040283529160200191610de3565b820191906000526020600020905b815481529060010190602001808311610dc657829003601f168201915b50505050509050915091509091565b604051806040016040528060608152602001600081525090565b6040518060800160405280600073ffffffffffffffffffffffffffffffffffffffff16815260200160008152602001600015158152602001606081525090565b6000604051905090565b600080fd5b600080fd5b6000819050919050565b610e7381610e60565b8114610e7e57600080fd5b50565b600081359050610e9081610e6a565b92915050565b600060208284031215610eac57610eab610e56565b5b6000610eba84828501610e81565b91505092915050565b600081519050919050565b600082825260208201905092915050565b60005b83811015610efd578082015181840152602081019050610ee2565b60008484015250505050565b6000601f19601f8301169050919050565b6000610f2582610ec3565b610f2f8185610ece565b9350610f3f818560208601610edf565b610f4881610f09565b840191505092915050565b60006020820190508181036000830152610f6d8184610f1a565b905092915050565b610f7e81610e60565b82525050565b6000602082019050610f996000830184610f75565b92915050565b600080fd5b600080fd5b7f4e487b7100000000000000000000000000000000000000000000000000000000600052604160045260246000fd5b610fe182610f09565b810181811067ffffffffffffffff8211171561100057610fff610fa9565b5b80604052505050565b6000611013610e4c565b905061101f8282610fd8565b919050565b600067ffffffffffffffff82111561103f5761103e610fa9565b5b61104882610f09565b9050602081019050919050565b82818337600083830152505050565b600061107761107284611024565b611009565b90508281526020810184848401111561109357611092610fa4565b5b61109e848285611055565b509392505050565b600082601f8301126110bb576110ba610f9f565b5b81356110cb848260208601611064565b91505092915050565b6000602082840312156110ea576110e9610e56565b5b600082013567ffffffffffffffff81111561110857611107610e5b565b5b611114848285016110a6565b91505092915050565b600081519050919050565b600082825260208201905092915050565b6000819050602082019050919050565b600082825260208201905092915050565b600061116582610ec3565b61116f8185611149565b935061117f818560208601610edf565b61118881610f09565b840191505092915050565b600061119f838361115a565b905092915050565b6000602082019050919050565b60006111bf8261111d565b6111c98185611128565b9350836020820285016111db85611139565b8060005b8581101561121757848403895281516111f88582611193565b9450611203836111a7565b925060208a019950506001810190506111df565b50829750879550505050505092915050565b6000602082019050818103600083015261124381846111b4565b905092915050565b60006040820190506112606000830185610f75565b81810360208301526112728184610f1a565b90509392505050565b7f4e487b7100000000000000000000000000000000000000000000000000000000600052602160045260246000fd5b7f566f74696e6720686173206e6f74207374617274656400000000000000000000600082015250565b60006112e0601683610ece565b91506112eb826112aa565b602082019050919050565b6000602082019050818103600083015261130f816112d3565b9050919050565b7f4e487b7100000000000000000000000000000000000000000000000000000000600052602260045260246000fd5b6000600282049050600182168061135d57607f821691505b6020821081036113705761136f611316565b5b50919050565b7f796f75206861766520616c726561647920766f74656400000000000000000000600082015250565b60006113ac601683610ece565b91506113b782611376565b602082019050919050565b600060208201905081810360008301526113db8161139f565b9050919050565b7f4e487b7100000000000000000000000000000000000000000000000000000000600052601160045260246000fd5b600061141c82610e60565b91507fffffffffffffffffffffffffffffffffffffffffffffffffffffffffffffffff820361144e5761144d6113e2565b5b600182019050919050565b7f4f6e6c79206f7267616e697a65722063616e20656e642074686520766f74696e60008201527f6700000000000000000000000000000000000000000000000000000000000000602082015250565b60006114b5602183610ece565b91506114c082611459565b604082019050919050565b600060208201905081810360008301526114e4816114a8565b9050919050565b6000815490506114fa81611345565b9050919050565b60008190508160005260206000209050919050565b60008190508160005260206000209050919050565b60006020601f8301049050919050565b600082821b905092915050565b6000600883026115787fffffffffffffffffffffffffffffffffffffffffffffffffffffffffffffffff8261153b565b611582868361153b565b95508019841693508086168417925050509392505050565b6000819050919050565b60006115bf6115ba6115b584610e60565b61159a565b610e60565b9050919050565b6000819050919050565b6115d9836115a4565b6115ed6115e5826115c6565b848454611548565b825550505050565b600090565b6116026115f5565b61160d8184846115d0565b505050565b5b81811015611631576116266000826115fa565b600181019050611613565b5050565b601f8211156116765761164781611501565b6116508461152b565b8101602085101561165f578190505b61167361166b8561152b565b830182611612565b50505b505050565b600082821c905092915050565b60006116996000198460080261167b565b1980831691505092915050565b60006116b28383611688565b9150826002028217905092915050565b8181036116d05750506117a8565b6116d9826114eb565b67ffffffffffffffff8111156116f2576116f1610fa9565b5b6116fc8254611345565b611707828285611635565b6000601f8311600181146117365760008415611724578287015490505b61172e85826116a6565b8655506117a1565b601f19841661174487611516565b965061174f86611501565b60005b8281101561177757848901548255600182019150600185019450602081019050611752565b868310156117945784890154611790601f891682611688565b8355505b6001600288020188555050505b5050505050505b565b7f6f6e6c79206f7267616e697a65722063616e20616464207468652063616e646960008201527f6461746573000000000000000000000000000000000000000000000000000000602082015250565b6000611806602583610ece565b9150611811826117aa565b604082019050919050565b60006020820190508181036000830152611835816117f9565b9050919050565b7f4e487b7100000000000000000000000000000000000000000000000000000000600052603260045260246000fd5b7f656e7465722076616c69642063616e646964617465206e616d65000000000000600082015250565b60006118a1601a83610ece565b91506118ac8261186b565b602082019050919050565b600060208201905081810360008301526118d081611894565b9050919050565b6118e082610ec3565b67ffffffffffffffff8111156118f9576118f8610fa9565b5b6119038254611345565b61190e828285611635565b600060209050601f831160018114611941576000841561192f578287015190505b61193985826116a6565b8655506119a1565b601f19841661194f86611501565b60005b8281101561197757848901518255600182019150602085019450602081019050611952565b868310156119945784890151611990601f891682611688565b8355505b6001600288020188555050505b505050505050565b7f74686520617265206e6f2063616e646964617465730000000000000000000000600082015250565b60006119df601583610ece565b91506119ea826119a9565b602082019050919050565b60006020820190508181036000830152611a0e816119d2565b9050919050565b7f766f74696e672070726f636573732068617320456e6465640000000000000000600082015250565b6000611a4b601883610ece565b9150611a5682611a15565b602082019050919050565b60006020820190508181036000830152611a7a81611a3e565b9050919050565b7f616c726561647920726567697374657265640000000000000000000000000000600082015250565b6000611ab7601283610ece565b9150611ac282611a81565b602082019050919050565b60006020820190508181036000830152611ae681611aaa565b9050919050565b6000611af882610e60565b9150611b0383610e60565b9250828201905080821115611b1b57611b1a6113e2565b5b92915050565b7f4f6e6c79206f7267616e697a65722063616e2073746172742074686520766f7460008201527f696e670000000000000000000000000000000000000000000000000000000000602082015250565b6000611b7d602383610ece565b9150611b8882611b21565b604082019050919050565b60006020820190508181036000830152611bac81611b70565b905091905056fea26469706673582212203710953ac117a0c6fa87e334c77bab546d448f6d0ec6f3a80625b557a23616f764736f6c63430008110033",
  "immutableReferences": {},
  "source": "// SPDX-License-Identifier: MIT\r\npragma solidity>=0.7.0;\r\n\r\ncontract VotingSystem{\r\n\r\n//variables\r\n\r\nstring[] namelist;\r\n\r\n\r\nstruct voter{\r\n\r\naddress voteraddress;\r\nuint choice;\r\nbool voted_or_not;\r\nstring voter_name;\r\n}\r\n\r\n\r\nstruct candidate{\r\n\r\nstring candidate_name;\r\nuint no_votes;\r\n}\r\n\r\n mapping(uint=>candidate) private candidate_list;\r\n\r\nuint private candidate_count=0;\r\nstring private Winner;\r\nuint private finalResult=0;\r\nuint public totalVoters=0;\r\nuint private totalvotes=0;\r\n\r\n\r\naddress private Organizer_address;\r\nstring public Organizer_name;\r\nmapping(address=> voter) private voter_register;\r\n\r\nenum State { Created,Voting,Ended}\r\n\r\nState private state;\r\n\r\n\r\n\r\n\r\n\r\n//modifiers\r\n\r\n\r\n\r\n\r\n//methods\r\nconstructor(){\r\n    string memory name=\"uday\";\r\n    bytes memory check=bytes(name);\r\n    for(uint i=0;i<check.length;i++){\r\n        bytes1 ch=check[i];\r\n        require((ch >= 0x41 && ch <= 0x5A)|| (ch >= 0x61 && ch <= 0x7A),\"enter valid name\");\r\n\r\n    }\r\n\r\n\r\n    \r\n\r\n    Organizer_address=msg.sender;\r\n    Organizer_name=name;\r\n    state=State.Created;\r\n\r\n}\r\n\r\nfunction start_voting()public{\r\n\r\nrequire(msg.sender==Organizer_address,\"Only organizer can start the voting\");    \r\n    state=State.Voting;\r\n}\r\n\r\nfunction end_voting()public{\r\n\r\nrequire(msg.sender==Organizer_address,\"Only organizer can end the voting\"); \r\n    state=State.Ended;\r\n\r\nfor(uint i=0;i<candidate_count;i++){\r\n    if(candidate_list[i].no_votes>finalResult){\r\n        finalResult=candidate_list[i].no_votes;\r\n        Winner=candidate_list[i].candidate_name;\r\n    }\r\n}\r\n\r\n\r\n}\r\n\r\n\r\n\r\n\r\n\r\n\r\n\r\n\r\nfunction addCandidates(string memory name)public {\r\n\r\nrequire(state!=State.Voting && state !=State.Ended);    \r\n\r\nrequire(msg.sender==Organizer_address,\"only organizer can add the candidates\");\r\n\r\nbytes memory check=bytes(name);\r\n    for(uint i=0;i<check.length;i++){\r\n        bytes1 ch=check[i];\r\n        require((ch >= 0x41 && ch <= 0x5A)|| (ch >= 0x61 && ch <= 0x7A),\"enter valid candidate name\");\r\n\r\n    }\r\n\r\n\r\n\r\n\r\n\r\n\r\ncandidate memory c;\r\nc.candidate_name=name;\r\nnamelist.push(name);\r\nc.no_votes=0;\r\n\r\ncandidate_list[candidate_count]=c;\r\ncandidate_count++;\r\n}\r\n\r\n\r\n\r\n\r\n\r\n\r\n\r\n\r\n\r\n\r\n\r\n\r\n////VOTER SIDE FUNCTIONS\r\n\r\n\r\nfunction get_candidates_list()view public returns(string[] memory){\r\n\r\nrequire(candidate_count>0,\"the are no candidates\");\r\n\r\nreturn namelist;\r\n\r\n}\r\n\r\n\r\n\r\n\r\n\r\n\r\nfunction register_voter(string memory name)public{\r\n\r\nrequire(state!=State.Ended,\"voting process has Ended\");\r\nrequire(voter_register[msg.sender].voteraddress!=msg.sender,\"already registered\");\r\n\r\nvoter memory v;\r\n v.voteraddress=msg.sender;\r\n v.voter_name=name;\r\n v.voted_or_not=false;\r\n v.choice=0;\r\n\r\n voter_register[v.voteraddress]=v;\r\n\r\n totalVoters=totalVoters+1;\r\n\r\n}\r\n\r\n\r\n\r\nfunction do_vote(uint c)public{\r\n\r\nrequire(state==State.Voting,\"Voting has not started\");\r\nrequire(c<=candidate_count);    \r\n\r\nrequire(bytes(voter_register[msg.sender].voter_name).length!=0 && voter_register[msg.sender].voted_or_not==false,\"you have already voted\");\r\n\r\nvoter_register[msg.sender].voted_or_not=true;\r\nvoter_register[msg.sender].choice=c;\r\n\r\ncandidate_list[c].no_votes++;\r\n\r\ntotalvotes++;\r\n\r\n}\r\n\r\n\r\nfunction get_Result()view public returns(uint,string memory){\r\n\r\n    require(state==State.Ended);\r\n    return (finalResult,Winner);\r\n}\r\n\r\n}",
  "sourcePath": "C:\\Users\\91905\\OneDrive\\Desktop\\vs code\\project\\server\\contracts\\Votingcon.sol",
  "compiler": {
    "name": "solc",
    "version": "0.8.17+commit.8df45f5f.Emscripten.clang"
  },
  "schemaVersion": "3.4.10",
  "updatedAt": "2022-11-14T10:45:44.146Z",
  "devdoc": {
    "kind": "dev",
    "methods": {},
    "version": 1
  },
  "userdoc": {
    "kind": "user",
    "methods": {},
    "version": 1
  }
}