{
  "contractName": "Votingcon",
  "abi": [
    {
      "inputs": [],
      "stateMutability": "nonpayable",
      "type": "constructor"
    },
    {
      "inputs": [],
      "name": "Organizer_name",
      "outputs": [
        {
          "internalType": "string",
          "name": "",
          "type": "string"
        }
      ],
      "stateMutability": "view",
      "type": "function",
      "constant": true
    },
    {
      "inputs": [],
      "name": "state",
      "outputs": [
        {
          "internalType": "enum Votingcon.State",
          "name": "",
          "type": "uint8"
        }
      ],
      "stateMutability": "view",
      "type": "function",
      "constant": true
    },
    {
      "inputs": [],
      "name": "totalVoters",
      "outputs": [
        {
          "internalType": "uint256",
          "name": "",
          "type": "uint256"
        }
      ],
      "stateMutability": "view",
      "type": "function",
      "constant": true
    },
    {
      "inputs": [],
      "name": "start_voting",
      "outputs": [],
      "stateMutability": "nonpayable",
      "type": "function"
    },
    {
      "inputs": [],
      "name": "get_status",
      "outputs": [
        {
          "internalType": "enum Votingcon.State",
          "name": "",
          "type": "uint8"
        }
      ],
      "stateMutability": "view",
      "type": "function",
      "constant": true
    },
    {
      "inputs": [],
      "name": "end_voting",
      "outputs": [],
      "stateMutability": "nonpayable",
      "type": "function"
    },
    {
      "inputs": [
        {
          "internalType": "string",
          "name": "name",
          "type": "string"
        }
      ],
      "name": "addCandidates",
      "outputs": [],
      "stateMutability": "nonpayable",
      "type": "function"
    },
    {
      "inputs": [],
      "name": "get_candidates_list",
      "outputs": [
        {
          "internalType": "string[]",
          "name": "",
          "type": "string[]"
        }
      ],
      "stateMutability": "view",
      "type": "function",
      "constant": true
    },
    {
      "inputs": [
        {
          "internalType": "string",
          "name": "name",
          "type": "string"
        }
      ],
      "name": "register_voter",
      "outputs": [],
      "stateMutability": "nonpayable",
      "type": "function"
    },
    {
      "inputs": [
        {
          "internalType": "uint256",
          "name": "c",
          "type": "uint256"
        }
      ],
      "name": "do_vote",
      "outputs": [],
      "stateMutability": "nonpayable",
      "type": "function"
    },
    {
      "inputs": [],
      "name": "get_Result",
      "outputs": [
        {
          "internalType": "uint256",
          "name": "",
          "type": "uint256"
        },
        {
          "internalType": "string",
          "name": "",
          "type": "string"
        }
      ],
      "stateMutability": "view",
      "type": "function",
      "constant": true
    }
  ],
  "bytecode": "0x608060405260006002556000600455600060055560006006553480156200002557600080fd5b5060006040518060400160405280600481526020017f75646179000000000000000000000000000000000000000000000000000000008152509050600081905060005b8151811015620001b25760008282815181106200008a57620000896200023c565b5b602001015160f81c60f81b9050604160f81b817effffffffffffffffffffffffffffffffffffffffffffffffffffffffffffff191610158015620000f45750605a60f81b817effffffffffffffffffffffffffffffffffffffffffffffffffffffffffffff191611155b80620001595750606160f81b817effffffffffffffffffffffffffffffffffffffffffffffffffffffffffffff191610158015620001585750607a60f81b817effffffffffffffffffffffffffffffffffffffffffffffffffffffffffffff191611155b5b6200019b576040517f08c379a00000000000000000000000000000000000000000000000000000000081526004016200019290620002cc565b60405180910390fd5b508080620001a99062000327565b91505062000068565b5033600760006101000a81548173ffffffffffffffffffffffffffffffffffffffff021916908373ffffffffffffffffffffffffffffffffffffffff1602179055508160089081620002059190620005e4565b506000600a60006101000a81548160ff021916908360028111156200022f576200022e620006cb565b5b02179055505050620006fa565b7f4e487b7100000000000000000000000000000000000000000000000000000000600052603260045260246000fd5b600082825260208201905092915050565b7f656e7465722076616c6964206e616d6500000000000000000000000000000000600082015250565b6000620002b46010836200026b565b9150620002c1826200027c565b602082019050919050565b60006020820190508181036000830152620002e781620002a5565b9050919050565b7f4e487b7100000000000000000000000000000000000000000000000000000000600052601160045260246000fd5b6000819050919050565b600062000334826200031d565b91507fffffffffffffffffffffffffffffffffffffffffffffffffffffffffffffffff8203620003695762000368620002ee565b5b600182019050919050565b600081519050919050565b7f4e487b7100000000000000000000000000000000000000000000000000000000600052604160045260246000fd5b7f4e487b7100000000000000000000000000000000000000000000000000000000600052602260045260246000fd5b60006002820490506001821680620003f657607f821691505b6020821081036200040c576200040b620003ae565b5b50919050565b60008190508160005260206000209050919050565b60006020601f8301049050919050565b600082821b905092915050565b600060088302620004767fffffffffffffffffffffffffffffffffffffffffffffffffffffffffffffffff8262000437565b62000482868362000437565b95508019841693508086168417925050509392505050565b6000819050919050565b6000620004c5620004bf620004b9846200031d565b6200049a565b6200031d565b9050919050565b6000819050919050565b620004e183620004a4565b620004f9620004f082620004cc565b84845462000444565b825550505050565b600090565b6200051062000501565b6200051d818484620004d6565b505050565b5b8181101562000545576200053960008262000506565b60018101905062000523565b5050565b601f82111562000594576200055e8162000412565b620005698462000427565b8101602085101562000579578190505b62000591620005888562000427565b83018262000522565b50505b505050565b600082821c905092915050565b6000620005b96000198460080262000599565b1980831691505092915050565b6000620005d48383620005a6565b9150826002028217905092915050565b620005ef8262000374565b67ffffffffffffffff8111156200060b576200060a6200037f565b5b620006178254620003dd565b6200062482828562000549565b600060209050601f8311600181146200065c576000841562000647578287015190505b620006538582620005c6565b865550620006c3565b601f1984166200066c8662000412565b60005b8281101562000696578489015182556001820191506020850194506020810190506200066f565b86831015620006b65784890151620006b2601f891682620005a6565b8355505b6001600288020188555050505b505050505050565b7f4e487b7100000000000000000000000000000000000000000000000000000000600052602160045260246000fd5b611cc8806200070a6000396000f3fe608060405234801561001057600080fd5b50600436106100a95760003560e01c806362604e961161007157806362604e961461012e578063721b579a1461014a57806390bc7b3714610168578063b24aa34e14610184578063c19d93fb1461018e578063c5dec09e146101ac576100a9565b8063100249f9146100ae57806319bfd361146100ca57806339aaba25146100e85780635f5300ff14610106578063615a72cf14610124575b600080fd5b6100c860048036038101906100c39190610f12565b6101cb565b005b6100d261042a565b6040516100df9190610fcf565b60405180910390f35b6100f06104b8565b6040516100fd9190611068565b60405180910390f35b61010e6104cf565b60405161011b9190611092565b60405180910390f35b61012c6104d5565b005b610148600480360381019061014391906111e2565b610616565b005b610152610913565b60405161015f9190611337565b60405180910390f35b610182600480360381019061017d91906111e2565b610a31565b005b61018c610cc2565b005b610196610d7f565b6040516101a39190611068565b60405180910390f35b6101b4610d92565b6040516101c2929190611359565b60405180910390f35b600160028111156101df576101de610ff1565b5b600a60009054906101000a900460ff16600281111561020157610200610ff1565b5b14610241576040517f08c379a0000000000000000000000000000000000000000000000000000000008152600401610238906113d5565b60405180910390fd5b60025481111561025057600080fd5b6000600960003373ffffffffffffffffffffffffffffffffffffffff1673ffffffffffffffffffffffffffffffffffffffff168152602001908152602001600020600301805461029f90611424565b905014158015610302575060001515600960003373ffffffffffffffffffffffffffffffffffffffff1673ffffffffffffffffffffffffffffffffffffffff16815260200190815260200160002060020160009054906101000a900460ff161515145b610341576040517f08c379a0000000000000000000000000000000000000000000000000000000008152600401610338906114a1565b60405180910390fd5b6001600960003373ffffffffffffffffffffffffffffffffffffffff1673ffffffffffffffffffffffffffffffffffffffff16815260200190815260200160002060020160006101000a81548160ff02191690831515021790555080600960003373ffffffffffffffffffffffffffffffffffffffff1673ffffffffffffffffffffffffffffffffffffffff1681526020019081526020016000206001018190555060016000828152602001908152602001600020600101600081548092919061040a906114f0565b919050555060066000815480929190610422906114f0565b919050555050565b6008805461043790611424565b80601f016020809104026020016040519081016040528092919081815260200182805461046390611424565b80156104b05780601f10610485576101008083540402835291602001916104b0565b820191906000526020600020905b81548152906001019060200180831161049357829003601f168201915b505050505081565b6000600a60009054906101000a900460ff16905090565b60055481565b600760009054906101000a900473ffffffffffffffffffffffffffffffffffffffff1673ffffffffffffffffffffffffffffffffffffffff163373ffffffffffffffffffffffffffffffffffffffff1614610565576040517f08c379a000000000000000000000000000000000000000000000000000000000815260040161055c906115aa565b60405180910390fd5b6002600a60006101000a81548160ff0219169083600281111561058b5761058a610ff1565b5b021790555060005b600254811015610613576004546001600083815260200190815260200160002060010154111561060057600160008281526020019081526020016000206001015460048190555060016000828152602001908152602001600020600001600390816105fe91906117a1565b505b808061060b906114f0565b915050610593565b50565b6001600281111561062a57610629610ff1565b5b600a60009054906101000a900460ff16600281111561064c5761064b610ff1565b5b1415801561068d575060028081111561066857610667610ff1565b5b600a60009054906101000a900460ff16600281111561068a57610689610ff1565b5b14155b61069657600080fd5b600760009054906101000a900473ffffffffffffffffffffffffffffffffffffffff1673ffffffffffffffffffffffffffffffffffffffff163373ffffffffffffffffffffffffffffffffffffffff1614610726576040517f08c379a000000000000000000000000000000000000000000000000000000000815260040161071d906118fb565b60405180910390fd5b600081905060005b815181101561086b57600082828151811061074c5761074b61191b565b5b602001015160f81c60f81b9050604160f81b817effffffffffffffffffffffffffffffffffffffffffffffffffffffffffffff1916101580156107b55750605a60f81b817effffffffffffffffffffffffffffffffffffffffffffffffffffffffffffff191611155b806108185750606160f81b817effffffffffffffffffffffffffffffffffffffffffffffffffffffffffffff1916101580156108175750607a60f81b817effffffffffffffffffffffffffffffffffffffffffffffffffffffffffffff191611155b5b610857576040517f08c379a000000000000000000000000000000000000000000000000000000000815260040161084e90611996565b60405180910390fd5b508080610863906114f0565b91505061072e565b50610874610e6e565b8281600001819052506000839080600181540180825580915050600190039060005260206000200160009091909190915090816108b191906119b6565b5060008160200181815250508060016000600254815260200190815260200160002060008201518160000190816108e891906119b6565b506020820151816001015590505060026000815480929190610909906114f0565b9190505550505050565b606060006002541161095a576040517f08c379a000000000000000000000000000000000000000000000000000000000815260040161095190611ad4565b60405180910390fd5b6000805480602002602001604051908101604052809291908181526020016000905b82821015610a2857838290600052602060002001805461099b90611424565b80601f01602080910402602001604051908101604052809291908181526020018280546109c790611424565b8015610a145780601f106109e957610100808354040283529160200191610a14565b820191906000526020600020905b8154815290600101906020018083116109f757829003601f168201915b50505050508152602001906001019061097c565b50505050905090565b600280811115610a4457610a43610ff1565b5b600a60009054906101000a900460ff166002811115610a6657610a65610ff1565b5b03610aa6576040517f08c379a0000000000000000000000000000000000000000000000000000000008152600401610a9d90611b40565b60405180910390fd5b3373ffffffffffffffffffffffffffffffffffffffff16600960003373ffffffffffffffffffffffffffffffffffffffff1673ffffffffffffffffffffffffffffffffffffffff16815260200190815260200160002060000160009054906101000a900473ffffffffffffffffffffffffffffffffffffffff1673ffffffffffffffffffffffffffffffffffffffff1603610b76576040517f08c379a0000000000000000000000000000000000000000000000000000000008152600401610b6d90611bac565b60405180910390fd5b610b7e610e88565b33816000019073ffffffffffffffffffffffffffffffffffffffff16908173ffffffffffffffffffffffffffffffffffffffff1681525050818160600181905250600081604001901515908115158152505060008160200181815250508060096000836000015173ffffffffffffffffffffffffffffffffffffffff1673ffffffffffffffffffffffffffffffffffffffff16815260200190815260200160002060008201518160000160006101000a81548173ffffffffffffffffffffffffffffffffffffffff021916908373ffffffffffffffffffffffffffffffffffffffff1602179055506020820151816001015560408201518160020160006101000a81548160ff0219169083151502179055506060820151816003019081610ca591906119b6565b509050506001600554610cb89190611bcc565b6005819055505050565b600760009054906101000a900473ffffffffffffffffffffffffffffffffffffffff1673ffffffffffffffffffffffffffffffffffffffff163373ffffffffffffffffffffffffffffffffffffffff1614610d52576040517f08c379a0000000000000000000000000000000000000000000000000000000008152600401610d4990611c72565b60405180910390fd5b6001600a60006101000a81548160ff02191690836002811115610d7857610d77610ff1565b5b0217905550565b600a60009054906101000a900460ff1681565b60006060600280811115610da957610da8610ff1565b5b600a60009054906101000a900460ff166002811115610dcb57610dca610ff1565b5b14610dd557600080fd5b6004546003808054610de690611424565b80601f0160208091040260200160405190810160405280929190818152602001828054610e1290611424565b8015610e5f5780601f10610e3457610100808354040283529160200191610e5f565b820191906000526020600020905b815481529060010190602001808311610e4257829003601f168201915b50505050509050915091509091565b604051806040016040528060608152602001600081525090565b6040518060800160405280600073ffffffffffffffffffffffffffffffffffffffff16815260200160008152602001600015158152602001606081525090565b6000604051905090565b600080fd5b600080fd5b6000819050919050565b610eef81610edc565b8114610efa57600080fd5b50565b600081359050610f0c81610ee6565b92915050565b600060208284031215610f2857610f27610ed2565b5b6000610f3684828501610efd565b91505092915050565b600081519050919050565b600082825260208201905092915050565b60005b83811015610f79578082015181840152602081019050610f5e565b60008484015250505050565b6000601f19601f8301169050919050565b6000610fa182610f3f565b610fab8185610f4a565b9350610fbb818560208601610f5b565b610fc481610f85565b840191505092915050565b60006020820190508181036000830152610fe98184610f96565b905092915050565b7f4e487b7100000000000000000000000000000000000000000000000000000000600052602160045260246000fd5b6003811061103157611030610ff1565b5b50565b600081905061104282611020565b919050565b600061105282611034565b9050919050565b61106281611047565b82525050565b600060208201905061107d6000830184611059565b92915050565b61108c81610edc565b82525050565b60006020820190506110a76000830184611083565b92915050565b600080fd5b600080fd5b7f4e487b7100000000000000000000000000000000000000000000000000000000600052604160045260246000fd5b6110ef82610f85565b810181811067ffffffffffffffff8211171561110e5761110d6110b7565b5b80604052505050565b6000611121610ec8565b905061112d82826110e6565b919050565b600067ffffffffffffffff82111561114d5761114c6110b7565b5b61115682610f85565b9050602081019050919050565b82818337600083830152505050565b600061118561118084611132565b611117565b9050828152602081018484840111156111a1576111a06110b2565b5b6111ac848285611163565b509392505050565b600082601f8301126111c9576111c86110ad565b5b81356111d9848260208601611172565b91505092915050565b6000602082840312156111f8576111f7610ed2565b5b600082013567ffffffffffffffff81111561121657611215610ed7565b5b611222848285016111b4565b91505092915050565b600081519050919050565b600082825260208201905092915050565b6000819050602082019050919050565b600082825260208201905092915050565b600061127382610f3f565b61127d8185611257565b935061128d818560208601610f5b565b61129681610f85565b840191505092915050565b60006112ad8383611268565b905092915050565b6000602082019050919050565b60006112cd8261122b565b6112d78185611236565b9350836020820285016112e985611247565b8060005b85811015611325578484038952815161130685826112a1565b9450611311836112b5565b925060208a019950506001810190506112ed565b50829750879550505050505092915050565b6000602082019050818103600083015261135181846112c2565b905092915050565b600060408201905061136e6000830185611083565b81810360208301526113808184610f96565b90509392505050565b7f566f74696e6720686173206e6f74207374617274656400000000000000000000600082015250565b60006113bf601683610f4a565b91506113ca82611389565b602082019050919050565b600060208201905081810360008301526113ee816113b2565b9050919050565b7f4e487b7100000000000000000000000000000000000000000000000000000000600052602260045260246000fd5b6000600282049050600182168061143c57607f821691505b60208210810361144f5761144e6113f5565b5b50919050565b7f796f75206861766520616c726561647920766f74656400000000000000000000600082015250565b600061148b601683610f4a565b915061149682611455565b602082019050919050565b600060208201905081810360008301526114ba8161147e565b9050919050565b7f4e487b7100000000000000000000000000000000000000000000000000000000600052601160045260246000fd5b60006114fb82610edc565b91507fffffffffffffffffffffffffffffffffffffffffffffffffffffffffffffffff820361152d5761152c6114c1565b5b600182019050919050565b7f4f6e6c79206f7267616e697a65722063616e20656e642074686520766f74696e60008201527f6700000000000000000000000000000000000000000000000000000000000000602082015250565b6000611594602183610f4a565b915061159f82611538565b604082019050919050565b600060208201905081810360008301526115c381611587565b9050919050565b6000815490506115d981611424565b9050919050565b60008190508160005260206000209050919050565b60008190508160005260206000209050919050565b60006020601f8301049050919050565b600082821b905092915050565b6000600883026116577fffffffffffffffffffffffffffffffffffffffffffffffffffffffffffffffff8261161a565b611661868361161a565b95508019841693508086168417925050509392505050565b6000819050919050565b600061169e61169961169484610edc565b611679565b610edc565b9050919050565b6000819050919050565b6116b883611683565b6116cc6116c4826116a5565b848454611627565b825550505050565b600090565b6116e16116d4565b6116ec8184846116af565b505050565b5b81811015611710576117056000826116d9565b6001810190506116f2565b5050565b601f82111561175557611726816115e0565b61172f8461160a565b8101602085101561173e578190505b61175261174a8561160a565b8301826116f1565b50505b505050565b600082821c905092915050565b60006117786000198460080261175a565b1980831691505092915050565b60006117918383611767565b9150826002028217905092915050565b8181036117af575050611887565b6117b8826115ca565b67ffffffffffffffff8111156117d1576117d06110b7565b5b6117db8254611424565b6117e6828285611714565b6000601f8311600181146118155760008415611803578287015490505b61180d8582611785565b865550611880565b601f198416611823876115f5565b965061182e866115e0565b60005b8281101561185657848901548255600182019150600185019450602081019050611831565b86831015611873578489015461186f601f891682611767565b8355505b6001600288020188555050505b5050505050505b565b7f6f6e6c79206f7267616e697a65722063616e20616464207468652063616e646960008201527f6461746573000000000000000000000000000000000000000000000000000000602082015250565b60006118e5602583610f4a565b91506118f082611889565b604082019050919050565b60006020820190508181036000830152611914816118d8565b9050919050565b7f4e487b7100000000000000000000000000000000000000000000000000000000600052603260045260246000fd5b7f656e7465722076616c69642063616e646964617465206e616d65000000000000600082015250565b6000611980601a83610f4a565b915061198b8261194a565b602082019050919050565b600060208201905081810360008301526119af81611973565b9050919050565b6119bf82610f3f565b67ffffffffffffffff8111156119d8576119d76110b7565b5b6119e28254611424565b6119ed828285611714565b600060209050601f831160018114611a205760008415611a0e578287015190505b611a188582611785565b865550611a80565b601f198416611a2e866115e0565b60005b82811015611a5657848901518255600182019150602085019450602081019050611a31565b86831015611a735784890151611a6f601f891682611767565b8355505b6001600288020188555050505b505050505050565b7f74686520617265206e6f2063616e646964617465730000000000000000000000600082015250565b6000611abe601583610f4a565b9150611ac982611a88565b602082019050919050565b60006020820190508181036000830152611aed81611ab1565b9050919050565b7f766f74696e672070726f636573732068617320456e6465640000000000000000600082015250565b6000611b2a601883610f4a565b9150611b3582611af4565b602082019050919050565b60006020820190508181036000830152611b5981611b1d565b9050919050565b7f616c726561647920726567697374657265640000000000000000000000000000600082015250565b6000611b96601283610f4a565b9150611ba182611b60565b602082019050919050565b60006020820190508181036000830152611bc581611b89565b9050919050565b6000611bd782610edc565b9150611be283610edc565b9250828201905080821115611bfa57611bf96114c1565b5b92915050565b7f4f6e6c79206f7267616e697a65722063616e2073746172742074686520766f7460008201527f696e670000000000000000000000000000000000000000000000000000000000602082015250565b6000611c5c602383610f4a565b9150611c6782611c00565b604082019050919050565b60006020820190508181036000830152611c8b81611c4f565b905091905056fea2646970667358221220985904dd6e092ceabc8647db3079399014e4c80f88239522ed16e2fe94053f2c64736f6c63430008110033",
  "immutableReferences": {},
  "source": "// SPDX-License-Identifier: MIT\r\npragma solidity>=0.8.0;\r\n\r\ncontract Votingcon{\r\n\r\n//variables\r\n\r\nstring[] namelist;\r\n\r\n\r\nstruct voter{\r\n\r\naddress voteraddress;\r\nuint choice;\r\nbool voted_or_not;\r\nstring voter_name;\r\n}\r\n\r\n\r\nstruct candidate{\r\n\r\nstring candidate_name;\r\nuint no_votes;\r\n}\r\n\r\n mapping(uint=>candidate) private candidate_list;\r\n\r\nuint private candidate_count=0;\r\nstring private Winner;\r\nuint private finalResult=0;\r\nuint public totalVoters=0;\r\nuint private totalvotes=0;\r\n\r\n\r\naddress private Organizer_address;\r\nstring public Organizer_name;\r\nmapping(address=> voter) private voter_register;\r\n\r\nenum State {Created,Voting,Ended}\r\n\r\nState public state;\r\n\r\n\r\n\r\n\r\n\r\n//modifiers\r\n\r\n\r\n\r\n\r\n//methods\r\nconstructor(){\r\n    string memory name=\"uday\";\r\n    bytes memory check=bytes(name);\r\n    for(uint i=0;i<check.length;i++){\r\n        bytes1 ch=check[i];\r\n        require((ch >= 0x41 && ch <= 0x5A)|| (ch >= 0x61 && ch <= 0x7A),\"enter valid name\");\r\n\r\n    }\r\n\r\n\r\n    \r\n\r\n    Organizer_address=msg.sender;\r\n    Organizer_name=name;\r\n    state=State.Created;\r\n\r\n}\r\n\r\nfunction start_voting()public{\r\n\r\nrequire(msg.sender==Organizer_address,\"Only organizer can start the voting\");    \r\n    state=State.Voting;\r\n}\r\n\r\nfunction get_status()view public returns(State){\r\n\r\n//require(msg.sender==Organizer_address,\"Only organizer can start the voting\");    \r\n    \r\n\r\n    return state;\r\n}\r\n \r\n\r\nfunction end_voting()public{\r\n\r\nrequire(msg.sender==Organizer_address,\"Only organizer can end the voting\"); \r\n    state=State.Ended;\r\n\r\nfor(uint i=0;i<candidate_count;i++){\r\n    if(candidate_list[i].no_votes>finalResult){\r\n        finalResult=candidate_list[i].no_votes;\r\n        Winner=candidate_list[i].candidate_name;\r\n    }\r\n}\r\n\r\n\r\n}\r\n\r\n\r\n\r\n\r\n\r\n\r\n\r\n\r\nfunction addCandidates(string memory name)public {\r\n\r\nrequire(state!=State.Voting && state !=State.Ended);    \r\n\r\nrequire(msg.sender==Organizer_address,\"only organizer can add the candidates\");\r\n\r\nbytes memory check=bytes(name);\r\n    for(uint i=0;i<check.length;i++){\r\n        bytes1 ch=check[i];\r\n        require((ch >= 0x41 && ch <= 0x5A)|| (ch >= 0x61 && ch <= 0x7A),\"enter valid candidate name\");\r\n\r\n    }\r\n\r\n\r\n\r\n\r\n\r\n\r\ncandidate memory c;\r\nc.candidate_name=name;\r\nnamelist.push(name);\r\nc.no_votes=0;\r\n\r\ncandidate_list[candidate_count]=c;\r\ncandidate_count++;\r\n\r\n}\r\n\r\n\r\n\r\n\r\n\r\n\r\n\r\n\r\n\r\n\r\n\r\n\r\n////VOTER SIDE FUNCTIONS\r\n\r\n\r\nfunction get_candidates_list()view public returns(string[] memory){\r\n\r\nrequire(candidate_count>0,\"the are no candidates\");\r\n\r\nreturn namelist;\r\n\r\n}\r\n\r\n\r\n\r\n\r\n\r\n\r\nfunction register_voter(string memory name)public{\r\n\r\nrequire(state!=State.Ended,\"voting process has Ended\");\r\nrequire(voter_register[msg.sender].voteraddress!=msg.sender,\"already registered\");\r\n\r\nvoter memory v;\r\n v.voteraddress=msg.sender;\r\n v.voter_name=name;\r\n v.voted_or_not=false;\r\n v.choice=0;\r\n\r\n voter_register[v.voteraddress]=v;\r\n\r\n totalVoters=totalVoters+1;\r\n\r\n}\r\n\r\n\r\n\r\nfunction do_vote(uint c)public{\r\n\r\nrequire(state==State.Voting,\"Voting has not started\");\r\nrequire(c<=candidate_count);    \r\n\r\nrequire(bytes(voter_register[msg.sender].voter_name).length!=0 && voter_register[msg.sender].voted_or_not==false,\"you have already voted\");\r\n\r\nvoter_register[msg.sender].voted_or_not=true;\r\nvoter_register[msg.sender].choice=c;\r\n\r\ncandidate_list[c].no_votes++;\r\n\r\ntotalvotes++;\r\n\r\n} \r\n\r\n\r\nfunction get_Result()view public returns(uint,string memory){\r\n\r\n    require(state==State.Ended);\r\n    return (finalResult,Winner);\r\n}\r\n\r\n}",
  "sourcePath": "C:\\Users\\91905\\OneDrive\\Desktop\\vs code\\project\\server\\contracts\\Votingcon.sol",
  "compiler": {
    "name": "solc",
    "version": "0.8.17+commit.8df45f5f.Emscripten.clang"
  },
  "schemaVersion": "3.4.10",
  "updatedAt": "2023-01-19T15:37:06.138Z",
  "networkType": "ethereum",
  "devdoc": {
    "kind": "dev",
    "methods": {},
    "version": 1
  },
  "userdoc": {
    "kind": "user",
    "methods": {},
    "version": 1
  }
}